:100000001AC04AC049C0F3C647C046C045C0F1C582
:1000100043C042C041C040C03FC03EC066C53CC0B6
:100020003BC092C591C538C037C036C035C034C05A
:1000300033C032C01D0E11241FBECFEFCDBFDFE392
:10004000DEBF8091400080934000811105C098ED93
:1000500021E094BF209341008CBB1EE3A0E0BEE3EF
:10006000E3E7FDE102C005900D92A230B107D9F798
:100070002EE3A2E0BEE301C01D92A83FB207E1F764
:1000800010E0CBE1D0E003C02197FE0139DECA3198
:10009000D107D1F7C7D646CEB3CFE091E33EF0917A
:1000A000E43E8E179F0798F53091EA3E332361F0C6
:1000B000639FB0011124672F349FA0011124452FA5
:1000C000329F90011124232F3091F03EE091EB3EBE
:1000D000F091EC3E5091ED3E35131AC0DC01AA0FB1
:1000E000BB1F8A0F9B1F8E0F9F1FE091ED3EE80FF5
:1000F000F92FF11D6083E091EE3EE80FF92FF11D1D
:1001000040833091EF3E830F911DFC0120830895C1
:10011000880F991F880F991F8E0F9F1FFC01E30FF7
:10012000F11D1082E2CF0F931F93AB01BC018FB77B
:10013000F8940091DD3E1091DE3E2091DF3E30913B
:10014000E03E8FBFEFB7F8948091DD3E9091DE3EA8
:10015000A091DF3EB091E03EEFBF801B910BA20B60
:10016000B30B84179507A607B70760F31F910F918C
:100170000895CF92DF92EF92FF929FB7F89488E0B4
:100180008093840A80918E0A81FFFCCF80918D0A32
:10019000E091A20AF091A30AC090D93ED090DA3E35
:1001A000E090DB3EF090DC3E9FBF80FF08C0E73070
:1001B000F10528F48FEFC81AD80AE80AF80A9F0157
:1001C00036952795CF01820F911DE22FE695E69592
:1001D000322F32953F70E31BFF0B27FD3196E80F5E
:1001E000F91FA0E3B3E0A701960180DDF694E79440
:1001F000D794C794C60ED71EE81EF91EC701B601D4
:100200006E0F7F1F811D911DFF90EF90DF90CF90AB
:1002100008950F931F93CF93DF93CDB7DEB7279742
:10022000CDBFDEBF8091E53E9091E63E89839A8303
:100230008091EB3E9091EC3E892B09F469C080914E
:10024000E93E8C300CF064C094DF0091F13E1091D7
:10025000F23E2091F33E3091F43EAB01BC01401BD5
:10026000510B620B730B8091E73E9091E83EB0E03A
:10027000A0E0481759076A077B0730F3F894A0916C
:10028000EB3EB091EC3EFD0131968C918F83A091B5
:10029000F53EB091F63E9C918091F73E982B9E835F
:1002A0009C91809589238D838D818C8388E08B83BD
:1002B0005E816D814F813B812C8189819A815C9324
:1002C00047FD252F3A95000000C02C93262F41F0C2
:1002D000441F00C000006C9301D0F1CF00C008950E
:1002E00038E0419100006C93000000C000C001970D
:1002F00031F74F833B832C8389839A83789439DF4A
:100300006093F13E7093F23E8093F33E9093F43EFF
:100310002796CDBFDEBFDF91CF911F910F9108953A
:10032000CF93DF93FC0180913C3E90913D3E30970E
:1003300059F410920A0682E090E080933E3E90933A
:100340003F3EDF91CF910895248524FD05C0228191
:1003500033812817390721F00190F081E02DE7CF94
:10036000E093403EF093413EC0E0D6E085899FE3B4
:10037000882319F0928592959F708385258130E0BE
:100380002EA33FA3268130E02AA73BA78B31E8F4B8
:100390008C5F8D838185282F2F7020612A83288D83
:1003A0002360288F278130852A8F3B8F9C8F9285F1
:1003B0009F70998382958F70898F81E88883848567
:1003C00082FD05C081E08887BCCF8FE1E2CF81E06C
:1003D0008987B7CF1F93CF93DF93FC01848580FD7E
:1003E0009EC083FF9CC0877F8487C585D6859589FD
:1003F0007689911198C017813085632F607CC11573
:1004000022E0D20718F1CE018F5F91408430910530
:1004100008F479C0228120FF05C0969587955FEF8B
:10042000BAEF0AC0813021E0920720F0605CCE0173
:100430008F5E924051E0B6E0A12FA295AF70432F9E
:100440004F7032953F70232F23703AC08FEF91E0A9
:100450008C1B9D0B8430910508F455C0228120FF30
:1004600003C096958795E6CF813021E09207B8F2D8
:100470006034A8F260548FE091E08C1B9D0BCFCFCD
:10048000352F320F343030F48F5C9109232F803DAB
:100490009105B0F78631910538F5403128F0322FBB
:1004A000350F343030F1451B8230910528F5A031ED
:1004B00038F0450F403128F1250F243068F54B1BEB
:1004C0008230910520F7A295A07F2295207F462BB0
:1004D000242B1F70A12B322F2A2F278330877B30AC
:1004E000D8F47F5F768B1BC0450F4031C0F645972F
:1004F000D1CF4B1B232FD8CFA50FA031D0F6029719
:10050000D3CFAB1BDDCFC787D08B848582FFB3C031
:1005100080E8168A858B03C0848581608487DF919B
:10052000CF911F91089547855089C41BD50B90FF2B
:1005300007C0CB36DF4F9CF4743098F280E0E9CFEF
:1005400091FF0FC01C161D0654F0CA36DF4F0CF485
:100550008CC041505109703120F24787508B84E0A4
:100560001BC092FF1CC0CA368FEFD8070CF47DC0A9
:10057000A189B289CA17DB070CF07BC04B565140EA
:100580004B325140D8F6CF3F8FEFD8070CF46FC0F5
:1005900088E022970CF4A5CF9813BBCFA2CF93FF8E
:1005A0000EC0D7FDDCCFA189B289CA17DB070CF0DA
:1005B00060C0703108F495CF4F5F5F4FCECF94FF8E
:1005C00008C0733080F441895289C417D5073CF2C2
:1005D00088CF95FF0AC0733010F6418952894C17B5
:1005E0005D070CF07ECF80E4D7CF96FF0BC0793C3F
:1005F00008F0A4CF43895489C417D5070CF071CFF4
:1006000080E2CACF97FF6DCF848582FD1EC0A1898D
:10061000B28980E4AC17BD070CF084E010923A3E3A
:1006200010923B3ECF3F2FEFD2078CF4415051093F
:100630004787508B209114063091150621503109BF
:100640002093140630931506A7CF892FEBCF22975E
:100650000CF4A2CF4F5F5F4F4787508B2091140659
:10066000309115062F5F3F4FEBCF81E095CF82E0B1
:1006700093CF80E191CF84E04CCF813041F020F0E6
:10068000823049F060E001C06EE170E002C060E0DD
:100690007EE180E0089560E070E08EE10895CF9300
:1006A000C82F862FEADF472F282F8C2F90E0CF917D
:1006B000F4CCEF92FF920F931F93CF93DF93082F09
:1006C000F62EE42E122FD0E0C0E02E2D4F2D602FFD
:1006D000CE01E3DC2196C231D105B9F7112339F0FF
:1006E000DF91CF911F910F91FF90EF9092CDDF910D
:1006F000CF911F910F91FF90EF900895962F672F44
:10070000242F482F892FD5CFFF920F931F93CF937C
:10071000DF93F82EC92FD62F6091499D70914A9D85
:1007200080914B9D40E0EADF0F2D1C2FC0E0CD17DC
:1007300039F0F80161918F018C2FB1DFCF5FF7CFD6
:10074000DF91CF911F910F91FF9063CDE4E4FEE321
:1007500030E020E080E041E050E09589907639F08B
:10076000BA01022E01C0660F0A94EAF7862B2F5FAA
:100770003F4F77962630310581F70895EF92FF922B
:100780000F931F93CF93DF938091D83E811104C0C4
:100790008091D73E81113DC0D9DFC82F8770C9F045
:1007A000E12CC0FF02C024E1E22EF12CC2FF02C006
:1007B00094E1F92ED0E0C1FDD4E110E000E02E2D4F
:1007C0004F2D6D2FC80169DC0F5F1F4F09301105D8
:1007D000B1F78C2F8873B1F0F12CC5FF02C084E112
:1007E000F82E04E1C3FF00E010E0C4FD14E1C9E00D
:1007F000D0E02F2D402F612FCE014FDC2196C2314A
:10080000D105B9F7DF91CF911F910F91FF90EF9034
:1008100000CDDF91CF911F910F91FF90EF90089540
:100820002091003E3091013EC9019695879520FDAB
:1008300007C08093003E9093013E8091003E089552
:1008400024EB9227F6CF0F931F93CF93DF93162FAE
:10085000082FEC01E5DF83708330E1F389938C2F5F
:10086000801B8117B8F3DF91CF911F910F910895ED
:100870008091080483FB882780F9089594E0811112
:1008800016C0909326049091200492FD0AC09FB751
:10089000F89481110FC080913204877F80933204D5
:1008A0009FBF8091010A8B7F8093010A08959093E6
:1008B0002504E9CF809132048860F0CF8C30F0F4C9
:1008C00090E0FC01E959F24620812F3FB9F0FC018C
:1008D000E55AF246E08130E2E39FF0011124FC5F2B
:1008E000613069F42183815B9246DC018C91E80FD1
:1008F000F11D8089613029F08860808B0895228302
:10090000F2CF877FFACF6F927F928F92CF92DF9252
:10091000EF923B01882E41E0F1DE62E370E080E07F
:1009200090E001DCC090499DD0904A9DE0904B9DA5
:1009300041E08E2DB601E2DE62E370E080E090E0FF
:10094000F2DB41E0882DB301D9DE62E370E080E0A4
:1009500090E0E9DB41E08E2DB601D0DE62E370E08D
:1009600080E090E0EF90DF90CF908F907F906F903D
:10097000DACBCF92DF92EF92CF938091D03E9091DD
:100980000014891779F0A0E0B4E1E0E0F0E10FB6DF
:1009900022812370E9F7F8948C938DE984BF83E07A
:1009A00080830FBEC6E0C090289DD090299DE09026
:1009B0002A9D8E2DB601A7DFC150D9F7CF91EF90B8
:1009C000DF90CF9008958091D83E811127C0D1EF5C
:1009D0006090499D70904A9D80904B9D36E0E32E3B
:1009E000F12C42E1942E51E1C52ED12C09E010E00A
:1009F00040E0882DB30182DE8FE08D0F8B30C0F593
:100A000020E040E162E180E054DE03DC60E570E07C
:100A100080E090E088DBDF5FD73351F78EEF809383
:100A200052011092CE3E80915000897F8460809365
:100A300050008DE08093130480E020DF8091000659
:100A40008E7F80930006CDE3DDE961E0899136DF9A
:100A50002DE9C334D207C9F780915000816080939B
:100A60005000889588ED91E084BF90930001FFCFFE
:100A7000D43258F62BEF3D2F2303C0011124B701C8
:100A800022D9C62F8D2F692DFED8392F892F90E0BE
:100A90003A3020F523E0880F991F2A95E1F7B80135
:100AA00012D9C65EC60FC7FD1EC0CF310CF0CEE115
:100AB00083E0A82EB12C2C2F40E060E0C501EDDAD8
:100AC0002C2F40E060E0C5010996E7DA3FEFA31A5A
:100AD000B30A87E0A816B10471F797CF9601281BD7
:100AE000390BC901D7CFC0E0E3CF8F9381E080936A
:100AF0008D0A8FB78F93EF93FF93E9EDFEE39F93FA
:100B000068948FEF0DC0E89484819581805D9C4F3F
:100B100084839583885E934080F0848395838FEFF0
:100B20009081981B919390819F4F919390819F4FBB
:100B3000919390819F4F919336F39F91FF91EF9105
:100B40008F918FBF8F9118951F920F920FB60F92B2
:100B500011242F933F934F935F936F937F938F93C2
:100B60009F93AF93BF93CF93DF93EF93FF93C0E037
:100B7000D6E0E091403EF091413E3097F1F018828E
:100B80003B858889998922852F7002C09695879523
:100B90002A95E2F78587968784858860848784858F
:100BA00082FF23C0848531FF1BC08260848780E17F
:100BB00090E080933E3E90933F3EFF91EF91DF9116
:100BC000CF91BF91AF919F918F917F916F915F91E5
:100BD0004F913F912F910F900FBE0F901F9018953E
:100BE0008D7F848788E090E0E4CF8081918198DBDD
:100BF000E4CF1F920F920FB60F921124CF92DF9283
:100C0000EF92FF922F933F934F935F936F937F9356
:100C10008F939F93AF93BF93CF93DF93EF93FF9304
:100C200081E0809353018091CE3E882309F492C0E5
:100C30008FB7F894C090DD3ED090DE3EE090DF3E6E
:100C4000F090E03E8FBF80913E3E90913F3E887194
:100C50009927892B09F49FC080913A3E90913B3EA1
:100C60000097A1F020913E3E30913F3EB3DB809152
:100C70003A3E90913B3E892B09F083C010923C3E56
:100C800010923D3E10923E3E10923F3E8091023EB9
:100C90009091033EC81AD90A24E1C216D10408F47F
:100CA00059C044968093023E9093033E80913E3E0D
:100CB00090913F3E892B09F04DC0E0E0F6E0809135
:100CC0003E3E90913F3E89799927892B09F042C099
:100CD0008091423E9091433EDC0112962D913C91D1
:100CE000108E40EE20FD76C023FF71C048E2408F99
:100CF00046E8468F1082138243E0438733272093D0
:100D00003C3E30933D3EA0913A3EB0913B3E109721
:100D100009F463C082E0828784831F968D919C9141
:100D2000509751962D913C915297820F931F1A968E
:100D30002C911A972F7002C0880F991F2A95E2F7FD
:100D4000848B958B84E090E080933E3E90933F3E71
:100D5000CD01E6DAFF91EF91DF91CF91BF91AF9195
:100D60009F918F917F916F915F914F913F912F91C3
:100D7000FF90EF90DF90CF900F900FBE0F901F90DD
:100D8000189582E080930A0684E090E080933E3ECE
:100D900090933F3E7BCF80913E3E90913F3E0297A5
:100DA00009F074CF10923E3E10923F3EC091423EF9
:100DB000D091433E209729F410923C3E10923D3E44
:100DC00065CFCE0107DB0990D881C02DF3CF22FF7C
:100DD000C1CF48E2408F168E8DCF21E0228714824A
:100DE00021E030E020933E3E30933F3EB2CF1F9251
:100DF0000F920FB60F9211248F939F9388E08093E8
:100E000009048091CF3E882331F088ED91E084BFC2
:100E100090930001FFCF9F918F910F900FBE0F9085
:100E20001F901895CF93DF93CDB7DEB76C97CDBFEA
:100E3000DEBF88ED90E084BF90936100E0E0F6E0D3
:100E400083E582838DE0858380E2838381E08083F4
:100E5000109202028093030A9EEF9093260A9093C9
:100E6000270A9BE09093000AE0E8FAE02DEF31E0DA
:100E700026A737A7118290E89283848781E1808337
:100E8000789461E088E01ADD61E089E017DD61E0D7
:100E900085E014DD61E084E011DD61E084E00EDDD9
:100EA00062E08AE00BDD81E0E9DC809141018111A3
:100EB000FCCF81E0809347018091423E9091433E78
:100EC0002DE33DE9E4E4FEE304E010E0B4E08B2E22
:100ED00044E1E42EF12C6AE070E057E6C52E55E0BF
:100EE000D52EA3E07A2EB4EF6B2E40E5A42EB12CC4
:100EF000D9014D919D01912C4C3028F4A42FB0E0E4
:100F0000AF5CB2469C90FE3309F0F3C0DC01009761
:100F100009F0E6C01482CF01158296820283138302
:100F2000992009F4E6C08286E18AF28A638B748B89
:100F3000C782D086718640912206509123064929A6
:100F400040932206509323064BE25DE9A6E05A2E19
:100F500090FE06C0DA014C90A42DB0E0BC5F8C92EC
:100F600096945A944F5F5F4F5110F2CF6286A18AD8
:100F7000B28A638B748B77964DE92334340709F07A
:100F8000B7CF8093423E9093433E8091001480936C
:100F9000D03E81E08093520199E19093500180937B
:100FA000CE3E85E08093D83E212C312C210125E0D6
:100FB000922E10E000E0B091499DB98BE0914A9DDE
:100FC000EA8BF0914B9DFB8B80914C9D90914D9DB8
:100FD000A0914E9D8F8B988FA98FBC8BED8BFE8B34
:100FE00091E0991609F4B2C3991638F0A2E09A1666
:100FF00009F4C4C31092D83E912C0115110571F467
:101000001092D13E1092D23E1092D33E1092D43E16
:101010001092D53E1092D73E1092D63E8091D13E8E
:10102000C090499DD0904A9DE0904B9D8111E2C0B7
:1010300040E08E2DB60162DBC80108978832910529
:1010400008F067C06DE070E02AD69C01873008F098
:1010500059C04AE1429FC001439F900D112466E0B0
:1010600070E031D684E0D82ED60E93E0E92EF12C34
:101070002D2D40E060E0C70110D82D2D40E060E04C
:10108000C70109960AD8FFEFEF1AFF0A27E0E21618
:10109000F10471F7BED890E5A92EB12C0F5F1F4F58
:1010A000C5010B2C000CAA0BBB0B280E391E4A1EC7
:1010B0005B1ECE0101967C0190914C9D9E87A09174
:1010C0004D9DAF87B0914E9DB88B6090499D7090BB
:1010D0004A9D80904B9D9A8FAB8FBC8F37C4DA01AD
:1010E0004D915C91119741155105C9F7EA17FB071E
:1010F00009F4FFCFED93FC93119714964C914F5F39
:1011000044830ACF8CE090E0FC01E21BF30B9F01CB
:10111000A0CFC801C4974097C0F46091469D7091DC
:10112000479D8091489D40E0E9DA0436110508F4B6
:10113000B1CF81E08093D13E1092D23E1092D33E47
:101140001092D43E1092D53EA5CFC8018854910983
:10115000089718F5F12CE12CCC24C394D12CC601AE
:101160000E2C02C0880F991F0A94E2F7807E9170BE
:10117000892B59F020E142E160E0C7018ED720E1E0
:1011800042E160E0C701099688D74FEFE41AF40AFC
:1011900059E0E516F10419F7C8CFC8018055910947
:1011A000089718F5F12CE12CCC24C394D12CC6015E
:1011B0000E2C02C0880F991F0A94E2F78E719927AE
:1011C000892B59F020E142E160E0C70166D720E1B8
:1011D00042E160E0C701099660D78FEFE81AF80A8C
:1011E00099E0E916F10419F7A0CF0835110508F4C4
:1011F0009CCF93CFABDA811117C01092D63E80916D
:10120000D73E811173C0F090D43EF1106FC008DB5F
:10121000883208F048C081E08093D23E01DB8370C1
:101220008D5F8093D43E60C09091D63E891739F38C
:1012300080FD22C085FD22C081FD22C084FD22C028
:1012400082FD22C096E083FFDACF2091D73E291796
:10125000B1F29093D73E8093D63E1092D33E86E073
:101260009130F1F0923091F485E08093D23ED8DA5B
:1012700081708093D53EC3CF91E0E7CF92E0E5CF78
:1012800093E0E3CF94E0E1CF95E0DFCF8BE09330C4
:1012900039F089E0943021F08CE0953009F084E059
:1012A0008093D23EACCF8B3328F487E08093D23E3C
:1012B0008AE0B7CF8C3658F582E08093D23EB0DA20
:1012C0008F73895C8093D43EABDA8170B82EA8DA34
:1012D000843B30F0FF24F394803F10F0F2E0FF2EC7
:1012E000FF0CBF28B092D53E1092D33E40E08E2D29
:1012F000B60104DA8090D23E811058C06091469DBC
:101300007091479D8091489D40E0F8D95CC0843938
:1013100070F483E08093D23E83DA8F73845C809391
:10132000D43E7EDA69E0AFD49093D53EDDCF8E3ADD
:1013300038F484E08093D23E73DA8F738A5D71CF84
:101340008C3B38F486E08093D23E6ADA8F73895CF6
:1013500068CF803D58F485E08093D23E88E1809349
:10136000D43E5EDA81708093D53EBECF843E38F4A1
:1013700088E08093D23E54DA8F73885D52CF843FE9
:1013800038F489E08093D23E4BDA8F71825E49CF88
:101390008A3F38F48BE08093D23E42DA8F718E5CC4
:1013A00040CF8AE08093D23E8CE13BCF8091D33E08
:1013B000A7E08A1218C09EEF980F923008F49ECFD3
:1013C000863008F09BCF8091D33E8F5F8093D33ED1
:1013D0009091D73E992309F4A5C1803F08F45ACED5
:1013E0001092D33E57CEBAE08B1215C0863038F437
:1013F0006091439D7091449D8091459D85CF803142
:1014000038F460914C9D70914D9D80914E9D7CCFA4
:101410008531C8F273CFEBE08E1221C08F7181311C
:1014200018F090E2981B892FF6E18F9FC0011124DC
:1014300074E0959587957A95E1F7E8E0EE2EE80E51
:10144000D12CC12C20E040E06E2DC60126D62FEF16
:10145000C21AD20A42E1C416D104A1F7B4CF5CE0AB
:10146000851609F4B0CF93E089124EC0A82FAF7053
:10147000DA2E882339F0A11105C0D2D969E003D44E
:101480009093D53E8091D53EB3E02FEFBD1530F45B
:1014900098EF9D0D21E0943008F020E090E009964F
:1014A000820F911D27FD9A9529E030E0B9010BD4F8
:1014B0006C010896B90107D47C01C6010196B901F7
:1014C00002D45C0120E04DE06CE1C601E6D520E0ED
:1014D0004DE06CE1C701E1D520E04DE06CE1C501D4
:1014E000DCD520E04DE06CE1C6010996D6D520E0C0
:1014F0004DE06CE1C7010996D0D520E04DE06CE1EC
:10150000C5010996CAD55FCFE8E08E1219C090E0F8
:10151000959587959595879565E070E0D4D3982F3C
:101520009B7F61F08D7F91E0813009F490E0C92EBE
:10153000D12CC601089629E030E0BCCF98E0F7CF67
:10154000F2E08F1271C09091D53E292F30E05EE11C
:10155000C52ED12C90FD04C040EEC42EDD24D394C2
:101560003595279523704091D43E50E0BA0175958A
:10157000679575956795213099F490E09B01220F4E
:10158000331F8217930734F0260F371F82179307F4
:101590000CF43DC3792C50E1E52E62E1662E23C0A8
:1015A0002230C1F7F3E055954795FA95E1F790E0C1
:1015B000FB01E40FF51F9B01220F331F8E179F07BE
:1015C00024F0821793070CF422C3260F371F8217CB
:1015D000930704F3240F351FE92C692C4EE1742E78
:1015E00082179307BCF6B12CA12C81E090E00A2C65
:1015F00002C0880F991F0A94E2F78C219D21892B44
:1016000059F02E2D462D672DC50147D52E2D462D7F
:10161000672DC501099641D52FEFA21AB20A49E0FC
:10162000A416B10411F7CFCE24E0821609F4F5C256
:1016300046E084120FC08F71813118F090E2981B40
:10164000892F78E0E72EE80E692C792CE8E7CE2E7A
:10165000D12CC9CF59E085120FC0E92C5DE0652E71
:101660006CE1762E4EE1C42ED12C83FDBCCF80EEF2
:10167000C82EDD24D394B7CF95E08912D8C220912B
:10168000D53E21709091D73E9230D1F46CE3FBD2DD
:1016900099519A30C0F0D12CC12C25E14DE06CE17C
:1016A000C601FBD425E14DE06CE1C6010996F5D4F5
:1016B000EFEFCE1ADE0AF9E0CF16D10471F783CE30
:1016C0008850883040F789E0222311F0892D29E0E5
:1016D000B12CA12CE82EF12C66246394712CC22E1F
:1016E000D12C25E14DE06CE1C7018A0D9B1DD5D4BD
:1016F000C3010A2C02C0880F991F0A94E2F7887769
:101700009927892B39F025E14DE06CE1C6018A0D5E
:101710009B1DC3D4AFEFAA1ABA0AB9E0AB16B10445
:1017200001F751CE9091D43E891708F4B3CC8820AC
:1017300051F01092D23E1092D33E72D88F72875ED3
:101740008093D43EA7CC1092D43EA4CC2CE330E0BE
:10175000C801B901A4D27C014F9720F0C9018E19AC
:101760009F097C0121E040E060E08E2DA2D788EC4B
:10177000EF2809F08EE1A82EB12C90CC6091499D04
:1017800070914A9D80914B9D40E0B8D7C80169E0B7
:1017900070E085D27C012AE040E060E07ED42AE05F
:1017A00040E060E081E190E08E199F0976D431D568
:1017B00084E6A82EB12C72CC093C110508F4BDC0FA
:1017C000013B144008F0E2C0C1D7182FBFD78823CF
:1017D00001F1AFE4B3EC1197F1F700C00000F6CFD0
:1017E00093E041E039E12EEF4093520130935001F4
:1017F00080915000897F84608093500080915000D8
:10180000816080935000889520935201915061F738
:10181000DAD8112309F476C08FB7F8944091DD3EF1
:101820005091DE3E6091DF3E7091E03E8FBF80912F
:10183000003E9091013E9C01242735272093003ED5
:101840003093013E8417950731F481EE9CEA809332
:10185000003E9093013E123009F4DAC0143009F4CE
:1018600058C1113009F066C01092D73E1092D63E92
:101870008DE0809313041093CF3EB8ECBB87D0D794
:101880008770D82E482E512C1201E8E02E0E311C04
:10189000811103C011E1212E312CB7E0CB2E10E0D5
:1018A00000E00D8740E0882DB30128D720E04EE10D
:1018B00060E0C201F2D320E04EE160E0C101EDD36F
:1018C00020E040E06EE1C801E8D3FD85C80108963C
:1018D000F11102C081E190E020E040E06EE1DDD353
:1018E00098D41C862C852B5F2C8730D7882309F44D
:1018F00063C04D85D41609F474C06A8D7B8D8C8DC0
:1019000002D801C18091D83E811152C08091D73E4A
:10191000882309F44DC01092D73E1092D63E109203
:10192000D23E1092D33E7CD78F72875E8093D43E96
:101930001092D53E212C312C210110E000E09AE0DC
:10194000A91AB1081A141B040CF057C117D7AFE439
:10195000B3EC1197F1F700C000008AD7813079F31A
:1019600062E370E080E090E0DED302E310E080D735
:10197000811122CFE7EAF1E63197F1F700C00000CC
:101980000B5F1F4F053DF7E01F0789F760914C9DE6
:1019900070914D9D80914E9D41E0B0D669D78111E7
:1019A0001FCF87EA91E60197F1F700C00000F6CF5C
:1019B00093949092D83EBECF87EA91E60197F1F7D3
:1019C00000C000009C85AB859A1708F48BCF0F5F91
:1019D0001F4F0930110509F064CFCA94C1105FCFC1
:1019E0008CCFB4D6882339F0E7EAF1E63197F1F7E6
:1019F00000C00000F6CFFB85F451FB87F83209F0F8
:101A00003ECF8091D03E8E7F8093D03EB2D77BC0B8
:101A10001092D73E1092D63E8DE08093130481E061
:101A20008093CF3E67E0C7010ED740E069897A898D
:101A30008B8964D68701D12CD8016D918D018D2DB4
:101A40002ED6D394B7E0DB12F7CFE3D368EB7BE07D
:101A500080E090E068D360E0C70156D610E0AAE0CD
:101A6000CA2E74D6082F011109C070D6082FEFE4D2
:101A7000F3EC3197F1F700C00000F5CF7FD60430CA
:101A8000B9F080F40130C1F00230C1F000E0D12C97
:101A90005DD68823A9F08FE493EC0197F1F700C09D
:101AA0000000F6CF003151F0003231F0083071F70C
:101AB00001E0DD24D394ECCF02E0FBCF00E0F9CFCE
:101AC000DD20B1F0F701E10FF11D8081801310C01E
:101AD0001F5F612FC70118D664EF71E080E090E0CE
:101AE00022D3173009F0BDCF8091D03E8B7F8CCFB1
:101AF000CA946F89788D898D06D760E0C70104D6B6
:101B000010E0C110AECF88E0809313041092CF3E56
:101B100011CF1092D73E1092D63E8DE080931304E1
:101B200081E08093CF3E6AE0C7018DD6F3E05F2E5F
:101B30004E2C67018701D8018D918D019ED540E023
:101B4000DDD567D360E971E080E090E0ECD241E060
:101B50006C897D898E89D2D568EC70E080E090E058
:101B6000E2D2802F8E19851530F3F0D5182F111180
:101B700009C0ECD5182FEFE4F3EC3197F1F700C072
:101B80000000F5CFFBD5E2D5882339F08FE493EC44
:101B90000197F1F700C00000F6CFD6018D916D01DD
:101BA000813009F130F0823019F16E857F858889A6
:101BB000A7CE123011F01031C1F741E06C897D8958
:101BC0008E899CD564EF71E080E090E0ACD28C2DE2
:101BD0008419851550F25394BAE05B12AACF809114
:101BE000D03E8D7F11CF143041F31830F1F6E5CFA0
:101BF000113019F31032C9F6E0CFE1EA2E16EBEB03
:101C00003E06EDE04E06510408F4EAC901CEE92C87
:101C10007DE0672EECE17E2EE6CC94E0E92E792C77
:101C200028E1622E37E8C32EDD24D394DCCCE92CE6
:101C3000692C792CD12CC12CD6CCE3EEFEE382E3C7
:101C400090E084839583178284E09EE38087918768
:101C500016861786108A118A81E085878287138607
:101C600082E0848786E390E08283938382E190E040
:101C70008083918384E0868384E294E0828B938BDB
:101C800088E0848B0895991B79E004C0991F96170A
:101C900008F0961B881F7A95C9F780950895AA1BAE
:101CA000BB1B51E107C0AA1FBB1FA617B70710F047
:101CB000A61BB70B881F991F5A95A9F78095909579
:101CC000BC01CD01089597FB072E16F4009406D0B1
:101CD00077FD08D0E4DF07FC05D03EF490958195B0
:101CE0009F4F0895709561957F4F08950FD0A59FE0
:101CF000900DB49F900DA49F800D911D1124089507
:101D0000EE0FFF1F0590F491E02D0994A29FB00102
:101D1000B39FC001A39F01D0B29F700D811D1124FC
:081D2000911D0895F894FFCF16
:101D2800001E0014151617313001020408000010B7
:101D380020000000000001020307061C0D0000122D
:101D4800100000001E000004050607030201000140
:101D58000203000000000001010101000000001062
:0B1D6800204080080402010204080172
:021D7300E1ACE1
:00000001FF
